:020000040800F2
:10000000180A002089010008E5010008E501000840
:10001000E5010008E5010008E50100080000000016
:10002000000000000000000000000000E5010008E2
:10003000E501000800000000E5010008E5010008F6
:10004000E5010008E5010008E5010008E5010008F8
:10005000E5010008E5010008E5010008E5010008E8
:10006000E5010008E5010008E5010008E5010008D8
:10007000E5010008E5010008E5010008E5010008C8
:10008000E5010008E5010008E5010008E5010008B8
:10009000E5010008E5010008E5010008E5010008A8
:1000A000E5010008E5010008E5010008E501000898
:1000B000E5010008E5010008E5010008E501000888
:1000C000E5010008E5010008E5010008E501000878
:1000D000E5010008E5010008E5010008E501000868
:1000E000E5010008E5010008E5010008E501000858
:1000F000E5010008E5010008E5010008E501000848
:10010000E5010008E5010008E5010008E501000837
:10011000E5010008E5010008E5010008E501000827
:10012000E5010008E5010008E5010008E501000817
:10013000E5010008E5010008E5010008E501000807
:10014000E5010008E5010008E5010008E5010008F7
:10015000E5010008E5010008E5010008E5010008E7
:10016000E5010008E5010008E5010008E5010008D7
:10017000E5010008E5010008E5010008E5010008C7
:10018000E5010008E501000880B582B000AF104B22
:100190007B60104B3B6007E03B681A1D3A607A6851
:1001A000111D796012681A603B680B4A9342F3D3C1
:1001B0000A480B494FF000028842B8BF40F8042BB0
:1001C000FADB00F013F800BF0837BD4680BD00BF62
:1001D000DE150008000000200000002000000020C4
:1001E0001802002080B400AFFEE700BF80B500AF6A
:1001F00000F0A2FA382000F08BFD0321002000F06F
:1002000013FF002201211E4800F0D2FF0C21002024
:1002100000F00AFF012201211A4800F0C9FF122153
:10022000002000F001FF01220121174800F0C0FF6B
:100230001821002000F0F8FE01220121134800F0EF
:10024000B7FF1E21002000F0EFFE0122012110481F
:1002500000F0AEFF2421002000F0E6FE0122012183
:100260000C4800F0A5FF2A21002000F0DDFE01224D
:100270000121094800F09CFF00F038FEBDE700BFF7
:10028000E4110008EC110008001200081012000828
:1002900024120008381200084C12000880B483B001
:1002A00000AF78600B46FB70FB78002B06D0094945
:1002B000084B1A6B7B6813430B6306E00549054B3B
:1002C0001A6B7B68DB4313400B6300BF0C37BD46E2
:1002D00080BC70470038024080B584B002AF7860BF
:1002E0000B46FB707B68184A93420AD1F9780023C9
:1002F00001934FF48273009320230022124800F0F0
:1003000035F87B68114A93420AD1F97800230193AA
:100310004FF482730093202300220C4800F026F84B
:100320007B680B4A93420AD1F978002301934FF47A
:100330008273009320230022054800F017F800BFC5
:100340000837BD4680BD00BF003001400038004086
:10035000003C004080B483B000AF78600B467B80E7
:1003600000BF0C37BD4680BC704700BF80B588B069
:1003700000AF7860084611461A460346FB700B46EC
:10038000BB7013463B8007F10C03184600F0C0FA1F
:100390007B68394A93420BD1384A384B5B6C43F443
:1003A00080535364FB78184600F06EF800233B82BC
:1003B0007B68334A93420BD1304A304B1B6C43F479
:1003C00080431364FB78184600F08EF800233B82CC
:1003D0007B682C4A93420BD1284A284B1B6C43F470
:1003E00000431364FB78184600F0CAF800233B82F0
:1003F0003B883B830023BB81BB8D7B833B8DFB8193
:100400004FF40073FB82BB78002B04D100237B8266
:100410000023BB8216E0BB78012B04D100237B8232
:100420000123BB820EE0BB78022B04D102237B8226
:100430000023BB8206E0BB78032B03D102237B821F
:100440000123BB827B681B889BB223F040039AB2D6
:100450007B681A8007F10C031946786800F014FADB
:100460007B681B889BB243F040039AB27B681A807A
:1004700000BF2037BD4680BD00300140003802403B
:1004800000380040003C004080B584B002AF034615
:10049000FB71FB79002B09D1052301930323009302
:1004A00000230022E0210D4800F056FAFB79012BD1
:1004B00009D105230193032300930023002238214F
:1004C000074800F049FAFB79032B03D105210548C1
:1004D000FFF740FF00BF0837BD4680BD0000024067
:1004E000000402400030014080B584B002AF0346F2
:1004F000FB71FB79002B14D1052301930323009397
:10050000002300224FF48061194800F025FA0523EA
:10051000019303230093002300220C21154800F0CF
:100520001BFAFB79012B0AD10523019303230093C6
:10053000002300224FF460410D4800F00DFAFB79D2
:10054000022B09D1052301930323009300230022EA
:100550000D21094800F000FAFB79032B03D1052196
:100560000648FFF7F7FE00BF0837BD4680BD00BF55
:100570000004024000080240002002400038004011
:1005800080B584B002AF0346FB71FB79002B09D123
:1005900006230193032300930023002238210E48F1
:1005A00000F0DAF9FB79012B0AD10623019303232A
:1005B0000093002300224FF4E051084800F0CCF9EA
:1005C000FB79032B03D106210548FFF7C3FE00BFCB
:1005D0000837BD4680BD00BF00040240000802404D
:1005E000003C004080B487B000AF786039600023E1
:1005F0007B6100233B610023FB6000237B6176E08D
:1006000001227B6902FA03F33B613B681A683B698C
:100610001340FB60FA683B699A4265D17B681A68AF
:100620007B695B00032101FA03F3DB431A407B681B
:100630001A607B681A683B681B7919467B695B0006
:1006400001FA03F31A437B681A603B681B79012B9C
:1006500003D03B681B79022B2ED17B689A687B699B
:100660005B00032101FA03F3DB431A407B689A60C5
:100670007B689A683B685B7919467B695B0001FA85
:1006800003F31A437B689A607B685A687B699BB264
:10069000194601238B40DB431A407B685A607B6814
:1006A0005B683A68927911467A6992B201FA02F26D
:1006B00092B21A437B685A607B68DA687B699BB2A6
:1006C0005B00032101FA03F3DB431A407B68DA6025
:1006D0007B68DA683B68DB7919467B695B0001FA65
:1006E00003F31A437B68DA607B6901337B617B69C2
:1006F0000F2B85D900BF1C37BD4680BC704700BF9B
:1007000080B483B000AF78600B467B807B687A88CA
:100710001A8300BF0C37BD4680BC704780B483B0DD
:1007200000AF78600B467B807B687A885A8300BF75
:100730000C37BD4680BC704780B500AF124A124BE3
:100740001B6843F0010313600F4B00229A600E4AAE
:100750000D4B1B6823F0847323F4803313600A4B22
:100760000A4A5A60084A084B1B6823F48023136026
:10077000054B0022DA6000F00DF8054B4FF00062E7
:100780009A6000BF80BD00BF0038024010300024D6
:1007900000ED00E080B483B000AF00237B60002355
:1007A0003B60354A344B1B6843F480331360324B53
:1007B0001B6803F400333B607B6801337B603B685C
:1007C000002B03D17B68B3F5A06FF0D12A4B1B68D7
:1007D00003F40033002B02D001233B6001E000232F
:1007E0003B603B68012B42D1234A234B1B6C43F0F7
:1007F00080531364214A214B1B6843F480431360E8
:100800001D4A1D4B9B6893601B4A1B4B9B6843F41E
:1008100000439360184A184B9B6843F4A0539360BD
:10082000154B174A5A60144A134B1B6843F08073E8
:10083000136000BF104B1B6803F00073002BF9D04E
:10084000104B40F205621A600B4A0B4B9B6823F079
:1008500003039360084A084B9B6843F002039360CC
:1008600000BF054B9B6803F00C03082BF9D100BFB8
:100870000C37BD4680BC7047003802400070004015
:1008800019544007003C024080B485B000AF786046
:1008900039600023FB817B681B88FB81FB8903F4A3
:1008A0004153FB813B681A883B685B8813439AB2CB
:1008B0003B689B8813439AB23B68DB8813439AB228
:1008C0003B681B8913439AB23B685B8913439AB216
:1008D0003B689B8913439AB23B68DB8913439AB206
:1008E000FB891343FB817B68FA891A807B689B8BA9
:1008F0009BB223F400639AB27B689A833B681A8A9E
:100900007B681A8200BF1437BD4680BC704700BFA9
:1009100080B483B000AF78607B6800221A807B6867
:1009200000225A807B6800229A807B680022DA804D
:100930007B6800221A817B6800225A817B68002232
:100940009A817B680022DA817B6807221A8200BFC5
:100950000C37BD4680BC704780B586B002AF78606A
:10096000084611461A4603467B800B467B701346A9
:100970003B707B88002B3ED0786800F051F8002354
:10098000FB6029E07A88FB6842FA03F303F0010375
:10099000002B1DD0FB68DA08FB68D9087B6808319A
:1009A00053F82130F96801F0070189000F2000FA9F
:1009B00001F1C9430B40387FF96801F00701890054
:1009C00000FA01F119437B68083243F8221000E075
:1009D00000BFFB680133FB60FB680F2BD2D97A782C
:1009E00079883B7E01933B78009313460222786816
:1009F00000F02EF800E000BF1037BD4680BD00BFFC
:100A000080B483B000AF78607B6803F13F4303F5A7
:100A10007E039B0A9BB218460C37BD4680BC7047CC
:100A200080B582B000AF78607868FFF7E9FF0346D1
:100A30001A46012303FA02F1044A044B1B6B0B43D1
:100A4000136300BF0837BD4680BD00BF00380240B9
:100A500080B584B000AF7860084611461A46034658
:100A60007B800B467B7013463B707868FFF7C8FFAE
:100A70000346BB730023FB7367E07A88FB7B42FA73
:100A800003F303F00103002B5BD0BB7BBA7B32493D
:100A900031F8122011B2FA7B012000FA02F212B2F0
:100AA0000A4312B291B22C4A22F813107B68DB6819
:100AB000FA7B5200032101FA02F2D2431340397E3D
:100AC000FA7B520001FA02F21A437B68DA607B6813
:100AD0001A68FB7B5B00032101FA03F3DB4313403D
:100AE0007978FA7B520001FA02F21A437B681A60A5
:100AF0007B78012B02D07B78022B23D17B685B684B
:100B0000FA7B012101FA02F292B2D2431340397802
:100B1000FA7B01FA02F292B21A437B685A607B6850
:100B20009A68FB7B5B00032101FA03F3DB4313406C
:100B3000397FFA7B520001FA02F21A437B689A600D
:100B400000E000BFFB7B0133FB73FB7B0F2B94D9D1
:100B500000BF1037BD4680BD0000002080B483B0C8
:100B600000AF78600B46FB707B681B889BB203F07C
:100B70004003002B01D1002325E000BF7B681B89C7
:100B80009BB203F00303002BF8D07B681B899BB258
:100B900003F08003002BF1D1FB789AB27B689A8135
:100BA00000BF7B681B899BB203F00303002BF8D0C6
:100BB0007B681B899BB203F08003002BF1D17B681B
:100BC0009B899BB2DBB218460C37BD4680BC704790
:100BD00080B582B000AF01210420FFF75FFB002346
:100BE000BB710023FB7103237B7101233B714FF425
:100BF00000433B603B4619461248FFF7F3FC4FF4B5
:100C000080433B603B4619460E48FFF7EBFC4FF430
:100C100000533B603B4619460A48FFF7E3FC4FF49C
:100C200000410848FFF76CFD4FF400510548FFF7FD
:100C300067FD00210448FFF74FFB00BF0837BD46A2
:100C400080BD00BF000802400038004080B582B07F
:100C500000AF0346FB714FF400510848FFF75EFDFB
:100C6000FB7919460648FFF779FF4FF40051034816
:100C7000FFF746FD00BF0837BD4680BD00080240B3
:100C80000038004080B582B000AF03460A46FB71D1
:100C90001346BB71FB79012B02D0022B0FD01DE054
:100CA000BB79002B05D04FF480410E48FFF728FD9B
:100CB00014E04FF480410B48FFF730FD0EE0BB79A4
:100CC000002B05D04FF400410648FFF719FD04E062
:100CD0004FF400410348FFF721FD00BF00BF083774
:100CE000BD4680BD0008024080B485B000AF78608A
:100CF0000023FB6002E0FB680133FB60FA687B685D
:100D00009A42F8D300BF1437BD4680BC704700BF7D
:100D100080B582B000AF0346FB71FFF759FF002199
:100D20000220FFF7AFFF42F21070FFF7DDFF012155
:100D30000220FFF7A7FF2121002000F027F814214F
:100D4000002000F023F897F90730002B01DA7F2309
:100D5000FB71FB7963F07F03DBB21946002000F0E2
:100D600015F82021002000F011F80C21002000F0DF
:100D70000DF800F0AFF80C21002000F007F800F0AB
:100D800083F800BF0837BD4680BD00BF80B582B084
:100D900000AF03460A46FB711346BB71FB79002B7B
:100DA00007D0012B00D009E001210120FFF76AFFE5
:100DB00004E000210120FFF765FF00BFBB79184662
:100DC000FFF744FF00BF0837BD4680BD80B582B045
:100DD00000AF0346FB710B46BB7113467B71FB7979
:100DE000532B49D8BB792F2B48D87B79002B1DD0AA
:100DF000FA79BB79DB08D8B20146542303FB01F32F
:100E00001344F979542202FB00F20A441D498A5C1A
:100E100051B2BA7902F00702012000FA02F252B28E
:100E20000A4352B2D1B2174AD1541EE0FA79BB79C3
:100E3000DB08D8B20146542303FB01F31344F979CC
:100E4000542202FB00F20A440E498A5C51B2BA797C
:100E500002F00702012000FA02F252B2D24352B26B
:100E60000A4052B2D1B2074AD154BB79FA79B97962
:100E7000F87900F09DF802E000BF00E000BF0837FD
:100E8000BD4680BD2000002080B582B000AF00F0DC
:100E900021F800237B6007E00D4A7B6813440022A1
:100EA0001A707B6801337B607B68B3F5FC7FF3D3FA
:100EB0000021002000F0B8F82F2353220021002049
:100EC00000F076F800F012F800BF0837BD4680BD8C
:100ED0002000002080B500AF80210020FFF756FFE2
:100EE00040210020FFF752FF00BF80BD80B582B0D7
:100EF00000AF0023FB713BE0284B1B781A46FB79BF
:100F00000133DB009A422FDCFB79DB00244A1278A4
:100F1000934231DCFB7943F04003DBB219460020F9
:100F2000FFF734FF1F4B1B7863F07F03DBB21946DA
:100F30000020FFF72BFF1B4B1B78BB710EE0FB79EA
:100F4000542202FB03F2BB791344174AD35C1946BF
:100F50000120FFF71BFFBB790133BB71134B1B78DB
:100F6000BA799A42EBD900E000BFFB790133FB71FB
:100F7000FB79052BC0D900E000BF0A4B53221A7041
:100F80000A4B00221A70054B2F221A70044B0022C4
:100F90001A7000BF0837BD4680BD00BF1800002092
:100FA000190000201600002020000020170000205B
:100FB00090B482B000AF0446084611461A46234654
:100FC000FB710346BB710B467B7113463B71124BA1
:100FD0001B78FA799A4202D20F4AFB7913700F4BB1
:100FE0001B787A799A4202D90C4A7B7913700C4BA0
:100FF0001B78BA799A4202D2094ABB791370094B1D
:101000001B783A799A4202D9064A3B79137000BF9D
:101010000837BD4690BC704716000020170000201E
:10102000180000201900002080B483B000AF0346F0
:101030000A46FB711346BB71054AFB791370054ADA
:10104000BB79137000BF0C37BD4680BC704700BF32
:101050001D0000201C00002080B584B000AF0346B6
:10106000FB710B46BB7113467B717B79012B04D15D
:101070000423BB730623FB7303E00623BB7308231F
:10108000FB73474B1B781A46BB7B1344542B09DD7B
:10109000444B1A78FB7B1344DAB2424B1A70404B34
:1010A00000221A7000237B736BE0FB791F2B1CD985
:1010B0007B79012B0CD1FB79A3F12002797B3A4893
:1010C00013465B00134403440B441B783B730CE052
:1010D000FB79A3F12002797B344813465B0013446B
:1010E0005B0003440B441B783B733B7B002B05D117
:1010F000FB79002B02D0FB79202B3ED10023FB7221
:1011000030E0BB79012B15D1254B1878254B1A7887
:10111000FB7A1344D9B23A7BFB7A42FA03F303F029
:101120000103002B14BF01230023DBB21A46FFF793
:101130004DFE14E01A4B18781A4B1A78FB7A1344B8
:10114000D9B23A7BFB7A42FA03F303F00103002B96
:101150000CBF01230023DBB21A46FFF737FEFB7AF0
:101160000133FB72FA7AFB7B9A42CAD30C4B1B7891
:101170000133DAB20A4B1A7000E000BF7B7B013307
:101180007B737A7BBB7B013B9A428EDB044B1B78E3
:101190000133DAB2024B1A7000BF1037BD4680BD72
:1011A0001D0000201C000020A01400085812000898
:1011B00080B582B000AF78600B46FB701346BB7001
:1011C00008E07B685A1C7A601B78BA78F978184670
:1011D000FFF742FF7B681B78002BF2D100BF083776
:1011E000BD4680BD5465616D20490000616E6F6E23
:1011F00020312C2053494C56455220560000000007
:10120000616E6F6E20322C20474F4C4420495600AF
:10121000616E6F6E20332C20504C4154494E554D19
:1012200020490000616E6F6E20342C20554E5241D3
:101230004E4B454400000000616E6F6E20352C203F
:1012400042524F4E5A452058490000004D49442013
:101250004F522046454544000000000000000000B9
:101260002F000000000700070000147F147F140007
:10127000242A7F2A120032340816260036495522C5
:101280005000000503000000001C22410000004146
:10129000221C000014083E08140008083E0808003C
:1012A00000005030000010101010100000606000AE
:1012B00000002010080402003E5149453E00004253
:1012C0007F4000004261514946002141454B3100B9
:1012D0001814127F10002745454539003C4A4949FA
:1012E00030000171090503003649494936000649B5
:1012F00049291E0000363600000000563600000066
:101300000814224100001414141414000041221483
:101310000800020151090600324959513E007E1170
:1013200011117E007F49494936003E41414122006A
:101330007F4141221C007F49494941007F09090939
:1013400001003E4149497A007F0808087F000041BA
:101350007F4100002040413F01007F0814224100EE
:101360007F40404040007F020C027F007F04081055
:101370007F003E4141413E007F09090906003E4190
:1013800051215E007F09192946004649494931002B
:1013900001017F0101003F4040403F001F204020ED
:1013A0001F003F4038403F006314081463000708E3
:1013B00070080700615149454300007F414100002A
:1013C000552A552A55000041417F000004020102C0
:1013D000040040404040400000010204000020544E
:1013E000545478007F484444380038444444200032
:1013F000384444487F00385454541800087E09018A
:1014000002000C5252523E007F080404780000444F
:101410007D4000002040443D00007F102844000033
:1014200000417F4000007C04180478007C0804041C
:1014300078003844444438007C141414080008141C
:1014400014187C007C0804040800485454542000FC
:10145000043F444020003C4040207C001C204020B1
:101460001C003C4030403C004428102844000C50F4
:1014700050503C004464544C4400007F3E1C080023
:10148000081C3E7F0000087C7E7C0800103E7E3EEB
:1014900010003E3E3E3E3E00007F3E1C0800000025
:1014A0000000000017000300031F0A1F0A1F0509A0
:1014B00004120F171C000300000E11110E0005028C
:1014C00005040E04100800040404001000080402BF
:1014D0001F111F121F101D151711151F07041F17AD
:1014E000151D1F151D01011F1F151F17151F000AB0
:1014F00000100A00040A110A0A0A110A040115035D
:101500000E15161E051E1F150A0E11111F110E1F96
:1015100015151F05050E151D1F041F111F1108109D
:101520000F1F041B1F10101F061F1F0E1F0E110E72
:101530001F05020E111E1F0D16121509011F010FA6
:10154000100F0718071F0C1F1B041B031C03191582
:10155000131F110002040800111F020102101010D5
:101560000102001A161C1F120C0C12120C121F0C76
:101570001A16041E0506150F1F021C001D00101070
:101580000D1F0C12111F101E0E1E1E021C0C120C21
:101590001E0A04040A1E1C0202141E0A021F120E56
:1015A000101E0E100E1E1C1E120C1202141E1A1EED
:1015B00016041B11001F00111B040406021F1F1F2D
:1015C000000000000000000000000000000000001B
:0E15D00000000000000000000000000000000D
:0400000508000000EF
:00000001FF
